:020000040000FA
:020000000628D0
:040002000034003492
:080008004F28BF2821009913C5
:100010001917991619169915991420008C018D013C
:100020008E0122008C018D018E012000A101A6010C
:10003000A7010430A200B030A3000730A400D030E4
:10004000A500210091019201930194012100FF304C
:100050008C0040308D0080308E0023008C018D019B
:100060008E0123009F309B00230001309C00230061
:100070001E139E161E121E1523009D171D131D16FE
:1000800023001F129F159F101F1022001D119D108D
:1000900020009112210091160B178B17BF28F0003A
:1000A0000308F1002000911A592071088300F0081C
:1000B0000900230019082000A000200820008D005E
:1000C00021142000911208002110201A6820080035
:1000D00020186D20A018772008001030A20068308A
:1000E000A3000F30A400A030A500A1140800103018
:1000F000A2006830A30021150800EF30A7000030EF
:10010000A600000000000000000000000000000049
:1001100000000000000000000000000000000000DF
:1001200000000000000000000000000000000000CF
:1001300000000000000000000000000000000000BF
:1001400000000000000000000000000000000000AF
:100150000000000000000000000000000000A60BEE
:100160008128A70B7F28CD30A60000000000A60B39
:10017000B52800000800A018BB28211108002000A5
:10018000211864203D009C30A6003F30A5002000CF
:1001900022083D00A400200023083D00A300A20186
:1001A000A101303094002E14161015141C141A14CA
:1001B0001B14C030910021000E102000A1187D20DA
:1001C0002119BB203D009C30E6003F30E5002000B7
:1001D00024083D00E400200025083D00E300E20182
:1001E000E1013030D4006E14561055145C145A14CA
:1001F0005B14C030D10021008E112000A1187D2099
:100200007D200430A200B030A3000730A400D0301D
:06021000A500A110BF28AB
:020000040001F9
:02000E00E40903
:02001000FF1ED1
:00000001FF
