:020000040000FA
:020000000628D0
:040002000034003492
:080008004B28C82821009917BC
:100010001917991619169915991019102000D00161
:10002000D101D201D3012000FE30CF0020008D018C
:100030008E01210000308E008D0123008E018D0184
:100040002700181420000E1422001D119D102300FB
:100050009D171D131D1223001E139E161E121E1522
:1000600023009F15230044309B0023009C012100A6
:10007000911420001C139C161C129C119C141C141F
:1000800020007D309B002000911020001C158B1556
:100090000B178B17C82827001918AB2820009118B8
:1000A0005428111AB7200900911020005A2021006D
:1000B0000E14090021000E1020000E140730A000BD
:1000C0000230A1003F005030E80020000830A200BC
:1000D00000000000000000000E1000000000000002
:1000E0000000000000000000000000000000000010
:1000F0000000000000000000000000000000000000
:1001000000000000000000000E14A00B6828000092
:1001100000000000000000000E10000000000000C1
:1001200000000000000000000E14000000000000AD
:1001300000000000000000000000000000000000BF
:1001400000000000000000000000000000000000AF
:10015000A10B8C2808001910000020000E36800C1E
:10016000A20B09000830A2003F00E80A09002300A2
:1001700000089A003F00E80A200011120800200041
:10018000FE30CF0021004F3084001030910608006F
:10019000200053088D000130533E04020318BF2095
:0201A000C8286D
:020000040001F9
:02000E00E40903
:02001000FF1ED1
:00000001FF
